{
  "_format": "hh-sol-artifact-1",
  "contractName": "Udhari",
  "sourceName": "contracts/Udhari.sol",
  "abi": [
    {
      "inputs": [],
      "stateMutability": "nonpayable",
      "type": "constructor"
    },
    {
      "inputs": [],
      "name": "getMemos",
      "outputs": [
        {
          "components": [
            {
              "internalType": "string",
              "name": "name",
              "type": "string"
            },
            {
              "internalType": "string",
              "name": "message",
              "type": "string"
            },
            {
              "internalType": "uint256",
              "name": "timestamp",
              "type": "uint256"
            },
            {
              "internalType": "address",
              "name": "from",
              "type": "address"
            },
            {
              "internalType": "uint256",
              "name": "value",
              "type": "uint256"
            }
          ],
          "internalType": "struct Udhari.Memo[]",
          "name": "",
          "type": "tuple[]"
        }
      ],
      "stateMutability": "view",
      "type": "function"
    },
    {
      "inputs": [
        {
          "internalType": "string",
          "name": "from",
          "type": "string"
        },
        {
          "internalType": "string",
          "name": "message",
          "type": "string"
        }
      ],
      "name": "sendUdhari",
      "outputs": [],
      "stateMutability": "payable",
      "type": "function"
    }
  ],
  "bytecode": "0x608060405234801561001057600080fd5b5033600160006101000a81548173ffffffffffffffffffffffffffffffffffffffff021916908373ffffffffffffffffffffffffffffffffffffffff160217905550610ba0806100616000396000f3fe6080604052600436106100295760003560e01c80631f58167c1461002e578063865c51721461004a575b600080fd5b6100486004803603810190610043919061055d565b610075565b005b34801561005657600080fd5b5061005f610216565b60405161006c91906107ed565b60405180910390f35b600034116100b8576040517f08c379a00000000000000000000000000000000000000000000000000000000081526004016100af9061086c565b60405180910390fd5b600160009054906101000a900473ffffffffffffffffffffffffffffffffffffffff1673ffffffffffffffffffffffffffffffffffffffff166108fc349081150290604051600060405180830381858888f19350505050158015610120573d6000803e3d6000fd5b5060006040518060a001604052808481526020018381526020014281526020013373ffffffffffffffffffffffffffffffffffffffff168152602001348152509080600181540180825580915050600190039060005260206000209060050201600090919091909150600082015181600001908161019e9190610a98565b5060208201518160010190816101b49190610a98565b506040820151816002015560608201518160030160006101000a81548173ffffffffffffffffffffffffffffffffffffffff021916908373ffffffffffffffffffffffffffffffffffffffff1602179055506080820151816004015550505050565b60606000805480602002602001604051908101604052809291908181526020016000905b828210156103fa57838290600052602060002090600502016040518060a001604052908160008201805461026d906108bb565b80601f0160208091040260200160405190810160405280929190818152602001828054610299906108bb565b80156102e65780601f106102bb576101008083540402835291602001916102e6565b820191906000526020600020905b8154815290600101906020018083116102c957829003601f168201915b505050505081526020016001820180546102ff906108bb565b80601f016020809104026020016040519081016040528092919081815260200182805461032b906108bb565b80156103785780601f1061034d57610100808354040283529160200191610378565b820191906000526020600020905b81548152906001019060200180831161035b57829003601f168201915b50505050508152602001600282015481526020016003820160009054906101000a900473ffffffffffffffffffffffffffffffffffffffff1673ffffffffffffffffffffffffffffffffffffffff1673ffffffffffffffffffffffffffffffffffffffff1681526020016004820154815250508152602001906001019061023a565b50505050905090565b6000604051905090565b600080fd5b600080fd5b600080fd5b600080fd5b6000601f19601f8301169050919050565b7f4e487b7100000000000000000000000000000000000000000000000000000000600052604160045260246000fd5b61046a82610421565b810181811067ffffffffffffffff8211171561048957610488610432565b5b80604052505050565b600061049c610403565b90506104a88282610461565b919050565b600067ffffffffffffffff8211156104c8576104c7610432565b5b6104d182610421565b9050602081019050919050565b82818337600083830152505050565b60006105006104fb846104ad565b610492565b90508281526020810184848401111561051c5761051b61041c565b5b6105278482856104de565b509392505050565b600082601f83011261054457610543610417565b5b81356105548482602086016104ed565b91505092915050565b600080604083850312156105745761057361040d565b5b600083013567ffffffffffffffff81111561059257610591610412565b5b61059e8582860161052f565b925050602083013567ffffffffffffffff8111156105bf576105be610412565b5b6105cb8582860161052f565b9150509250929050565b600081519050919050565b600082825260208201905092915050565b6000819050602082019050919050565b600081519050919050565b600082825260208201905092915050565b60005b8381101561063b578082015181840152602081019050610620565b60008484015250505050565b600061065282610601565b61065c818561060c565b935061066c81856020860161061d565b61067581610421565b840191505092915050565b6000819050919050565b61069381610680565b82525050565b600073ffffffffffffffffffffffffffffffffffffffff82169050919050565b60006106c482610699565b9050919050565b6106d4816106b9565b82525050565b600060a08301600083015184820360008601526106f78282610647565b915050602083015184820360208601526107118282610647565b9150506040830151610726604086018261068a565b50606083015161073960608601826106cb565b50608083015161074c608086018261068a565b508091505092915050565b600061076383836106da565b905092915050565b6000602082019050919050565b6000610783826105d5565b61078d81856105e0565b93508360208202850161079f856105f1565b8060005b858110156107db57848403895281516107bc8582610757565b94506107c78361076b565b925060208a019950506001810190506107a3565b50829750879550505050505092915050565b600060208201905081810360008301526108078184610778565b905092915050565b600082825260208201905092915050565b7f506c656173652053656e642047726561746572207468616e205a65726f000000600082015250565b6000610856601d8361080f565b915061086182610820565b602082019050919050565b6000602082019050818103600083015261088581610849565b9050919050565b7f4e487b7100000000000000000000000000000000000000000000000000000000600052602260045260246000fd5b600060028204905060018216806108d357607f821691505b6020821081036108e6576108e561088c565b5b50919050565b60008190508160005260206000209050919050565b60006020601f8301049050919050565b600082821b905092915050565b60006008830261094e7fffffffffffffffffffffffffffffffffffffffffffffffffffffffffffffffff82610911565b6109588683610911565b95508019841693508086168417925050509392505050565b6000819050919050565b600061099561099061098b84610680565b610970565b610680565b9050919050565b6000819050919050565b6109af8361097a565b6109c36109bb8261099c565b84845461091e565b825550505050565b600090565b6109d86109cb565b6109e38184846109a6565b505050565b5b81811015610a07576109fc6000826109d0565b6001810190506109e9565b5050565b601f821115610a4c57610a1d816108ec565b610a2684610901565b81016020851015610a35578190505b610a49610a4185610901565b8301826109e8565b50505b505050565b600082821c905092915050565b6000610a6f60001984600802610a51565b1980831691505092915050565b6000610a888383610a5e565b9150826002028217905092915050565b610aa182610601565b67ffffffffffffffff811115610aba57610ab9610432565b5b610ac482546108bb565b610acf828285610a0b565b600060209050601f831160018114610b025760008415610af0578287015190505b610afa8582610a7c565b865550610b62565b601f198416610b10866108ec565b60005b82811015610b3857848901518255600182019150602085019450602081019050610b13565b86831015610b555784890151610b51601f891682610a5e565b8355505b6001600288020188555050505b50505050505056fea2646970667358221220208ea97245acb6d0773eb059c2a619cc7c105aed53827dcc79bbac59eb9b9a3464736f6c63430008120033",
  "linkReferences": {},
  "deployedLinkReferences": {}
}